{
  "_format": "hh-sol-artifact-1",
  "contractName": "UniversityVoting",
  "sourceName": "contracts/UniversityVoting.sol",
  "abi": [
    {
      "inputs": [
        {
          "internalType": "address",
          "name": "initialOwner",
          "type": "address"
        }
      ],
      "stateMutability": "nonpayable",
      "type": "constructor"
    },
    {
      "anonymous": false,
      "inputs": [
        {
          "indexed": true,
          "internalType": "uint256",
          "name": "electionId",
          "type": "uint256"
        },
        {
          "indexed": true,
          "internalType": "uint256",
          "name": "candidateId",
          "type": "uint256"
        },
        {
          "indexed": true,
          "internalType": "uint256",
          "name": "positionId",
          "type": "uint256"
        },
        {
          "indexed": false,
          "internalType": "address",
          "name": "studentWallet",
          "type": "address"
        },
        {
          "indexed": false,
          "internalType": "string",
          "name": "name",
          "type": "string"
        }
      ],
      "name": "CandidateAdded",
      "type": "event"
    },
    {
      "anonymous": false,
      "inputs": [
        {
          "indexed": true,
          "internalType": "uint256",
          "name": "electionId",
          "type": "uint256"
        },
        {
          "indexed": true,
          "internalType": "uint256",
          "name": "candidateId",
          "type": "uint256"
        },
        {
          "indexed": false,
          "internalType": "bool",
          "name": "verified",
          "type": "bool"
        }
      ],
      "name": "CandidateVerified",
      "type": "event"
    },
    {
      "anonymous": false,
      "inputs": [
        {
          "indexed": true,
          "internalType": "uint256",
          "name": "electionId",
          "type": "uint256"
        },
        {
          "indexed": false,
          "internalType": "string",
          "name": "title",
          "type": "string"
        },
        {
          "indexed": false,
          "internalType": "uint256",
          "name": "startTime",
          "type": "uint256"
        },
        {
          "indexed": false,
          "internalType": "uint256",
          "name": "endTime",
          "type": "uint256"
        }
      ],
      "name": "ElectionCreated",
      "type": "event"
    },
    {
      "anonymous": false,
      "inputs": [
        {
          "indexed": true,
          "internalType": "address",
          "name": "previousOwner",
          "type": "address"
        },
        {
          "indexed": true,
          "internalType": "address",
          "name": "newOwner",
          "type": "address"
        }
      ],
      "name": "OwnershipTransferred",
      "type": "event"
    },
    {
      "anonymous": false,
      "inputs": [
        {
          "indexed": true,
          "internalType": "uint256",
          "name": "electionId",
          "type": "uint256"
        },
        {
          "indexed": true,
          "internalType": "uint256",
          "name": "positionId",
          "type": "uint256"
        },
        {
          "indexed": true,
          "internalType": "uint256",
          "name": "candidateId",
          "type": "uint256"
        },
        {
          "indexed": false,
          "internalType": "address",
          "name": "voter",
          "type": "address"
        }
      ],
      "name": "VoteCast",
      "type": "event"
    },
    {
      "anonymous": false,
      "inputs": [
        {
          "indexed": true,
          "internalType": "uint256",
          "name": "electionId",
          "type": "uint256"
        },
        {
          "indexed": true,
          "internalType": "address",
          "name": "voter",
          "type": "address"
        }
      ],
      "name": "VoterWhitelisted",
      "type": "event"
    },
    {
      "inputs": [
        {
          "internalType": "uint256",
          "name": "electionId",
          "type": "uint256"
        },
        {
          "internalType": "uint256",
          "name": "positionId",
          "type": "uint256"
        },
        {
          "internalType": "address",
          "name": "studentWallet",
          "type": "address"
        },
        {
          "internalType": "string",
          "name": "name",
          "type": "string"
        }
      ],
      "name": "addCandidate",
      "outputs": [
        {
          "internalType": "uint256",
          "name": "candidateId",
          "type": "uint256"
        }
      ],
      "stateMutability": "nonpayable",
      "type": "function"
    },
    {
      "inputs": [
        {
          "internalType": "uint256",
          "name": "electionId",
          "type": "uint256"
        },
        {
          "internalType": "uint256",
          "name": "positionId",
          "type": "uint256"
        },
        {
          "internalType": "uint256",
          "name": "candidateId",
          "type": "uint256"
        }
      ],
      "name": "castVote",
      "outputs": [],
      "stateMutability": "nonpayable",
      "type": "function"
    },
    {
      "inputs": [
        {
          "internalType": "string",
          "name": "title",
          "type": "string"
        },
        {
          "internalType": "string",
          "name": "description",
          "type": "string"
        },
        {
          "internalType": "uint256",
          "name": "startTime",
          "type": "uint256"
        },
        {
          "internalType": "uint256",
          "name": "endTime",
          "type": "uint256"
        },
        {
          "components": [
            {
              "internalType": "uint256",
              "name": "id",
              "type": "uint256"
            },
            {
              "internalType": "string",
              "name": "title",
              "type": "string"
            },
            {
              "internalType": "string",
              "name": "requirements",
              "type": "string"
            }
          ],
          "internalType": "struct UniversityVoting.Position[]",
          "name": "initialPositions",
          "type": "tuple[]"
        }
      ],
      "name": "createElection",
      "outputs": [
        {
          "internalType": "uint256",
          "name": "electionId",
          "type": "uint256"
        }
      ],
      "stateMutability": "nonpayable",
      "type": "function"
    },
    {
      "inputs": [
        {
          "internalType": "uint256",
          "name": "electionId",
          "type": "uint256"
        },
        {
          "internalType": "uint256",
          "name": "candidateId",
          "type": "uint256"
        }
      ],
      "name": "getCandidate",
      "outputs": [
        {
          "components": [
            {
              "internalType": "uint256",
              "name": "id",
              "type": "uint256"
            },
            {
              "internalType": "address",
              "name": "studentWallet",
              "type": "address"
            },
            {
              "internalType": "string",
              "name": "name",
              "type": "string"
            },
            {
              "internalType": "uint256",
              "name": "positionId",
              "type": "uint256"
            },
            {
              "internalType": "uint256",
              "name": "voteCount",
              "type": "uint256"
            },
            {
              "internalType": "bool",
              "name": "verified",
              "type": "bool"
            }
          ],
          "internalType": "struct UniversityVoting.Candidate",
          "name": "",
          "type": "tuple"
        }
      ],
      "stateMutability": "view",
      "type": "function"
    },
    {
      "inputs": [
        {
          "internalType": "uint256",
          "name": "electionId",
          "type": "uint256"
        }
      ],
      "name": "getElection",
      "outputs": [
        {
          "internalType": "string",
          "name": "title",
          "type": "string"
        },
        {
          "internalType": "string",
          "name": "description",
          "type": "string"
        },
        {
          "internalType": "uint256",
          "name": "startTime",
          "type": "uint256"
        },
        {
          "internalType": "uint256",
          "name": "endTime",
          "type": "uint256"
        },
        {
          "internalType": "uint256[]",
          "name": "positionIds",
          "type": "uint256[]"
        },
        {
          "internalType": "uint256[]",
          "name": "candidateIds",
          "type": "uint256[]"
        }
      ],
      "stateMutability": "view",
      "type": "function"
    },
    {
      "inputs": [
        {
          "internalType": "uint256",
          "name": "electionId",
          "type": "uint256"
        }
      ],
      "name": "getElectionResults",
      "outputs": [
        {
          "internalType": "uint256[]",
          "name": "candidateIds",
          "type": "uint256[]"
        },
        {
          "internalType": "uint256[]",
          "name": "voteCounts",
          "type": "uint256[]"
        }
      ],
      "stateMutability": "view",
      "type": "function"
    },
    {
      "inputs": [
        {
          "internalType": "uint256",
          "name": "electionId",
          "type": "uint256"
        },
        {
          "internalType": "uint256",
          "name": "positionId",
          "type": "uint256"
        }
      ],
      "name": "getPosition",
      "outputs": [
        {
          "components": [
            {
              "internalType": "uint256",
              "name": "id",
              "type": "uint256"
            },
            {
              "internalType": "string",
              "name": "title",
              "type": "string"
            },
            {
              "internalType": "string",
              "name": "requirements",
              "type": "string"
            }
          ],
          "internalType": "struct UniversityVoting.Position",
          "name": "",
          "type": "tuple"
        }
      ],
      "stateMutability": "view",
      "type": "function"
    },
    {
      "inputs": [
        {
          "internalType": "address",
          "name": "voter",
          "type": "address"
        },
        {
          "internalType": "uint256",
          "name": "electionId",
          "type": "uint256"
        },
        {
          "internalType": "uint256",
          "name": "positionId",
          "type": "uint256"
        }
      ],
      "name": "hasVoted",
      "outputs": [
        {
          "internalType": "bool",
          "name": "",
          "type": "bool"
        }
      ],
      "stateMutability": "view",
      "type": "function"
    },
    {
      "inputs": [],
      "name": "nextCandidateId",
      "outputs": [
        {
          "internalType": "uint256",
          "name": "",
          "type": "uint256"
        }
      ],
      "stateMutability": "view",
      "type": "function"
    },
    {
      "inputs": [],
      "name": "nextElectionId",
      "outputs": [
        {
          "internalType": "uint256",
          "name": "",
          "type": "uint256"
        }
      ],
      "stateMutability": "view",
      "type": "function"
    },
    {
      "inputs": [],
      "name": "nextPositionId",
      "outputs": [
        {
          "internalType": "uint256",
          "name": "",
          "type": "uint256"
        }
      ],
      "stateMutability": "view",
      "type": "function"
    },
    {
      "inputs": [],
      "name": "owner",
      "outputs": [
        {
          "internalType": "address",
          "name": "",
          "type": "address"
        }
      ],
      "stateMutability": "view",
      "type": "function"
    },
    {
      "inputs": [],
      "name": "renounceOwnership",
      "outputs": [],
      "stateMutability": "nonpayable",
      "type": "function"
    },
    {
      "inputs": [
        {
          "internalType": "address",
          "name": "newOwner",
          "type": "address"
        }
      ],
      "name": "transferOwnership",
      "outputs": [],
      "stateMutability": "nonpayable",
      "type": "function"
    },
    {
      "inputs": [
        {
          "internalType": "uint256",
          "name": "electionId",
          "type": "uint256"
        },
        {
          "internalType": "uint256",
          "name": "candidateId",
          "type": "uint256"
        }
      ],
      "name": "verifyCandidate",
      "outputs": [],
      "stateMutability": "nonpayable",
      "type": "function"
    },
    {
      "inputs": [
        {
          "internalType": "uint256",
          "name": "electionId",
          "type": "uint256"
        },
        {
          "internalType": "address",
          "name": "voter",
          "type": "address"
        }
      ],
      "name": "whitelistVoter",
      "outputs": [],
      "stateMutability": "nonpayable",
      "type": "function"
    }
  ],
  "bytecode": "0x608060405260018055600160025560016003553480156200001f57600080fd5b5060405162003398380380620033988339818101604052810190620000459190620001b3565b62000065620000596200007d60201b60201c565b6200008560201b60201c565b62000076816200008560201b60201c565b50620001e5565b600033905090565b60008060009054906101000a900473ffffffffffffffffffffffffffffffffffffffff169050816000806101000a81548173ffffffffffffffffffffffffffffffffffffffff021916908373ffffffffffffffffffffffffffffffffffffffff1602179055508173ffffffffffffffffffffffffffffffffffffffff168173ffffffffffffffffffffffffffffffffffffffff167f8be0079c531659141344cd1fd0a4f28419497f9722a3daafe3b4186f6b6457e060405160405180910390a35050565b600080fd5b600073ffffffffffffffffffffffffffffffffffffffff82169050919050565b60006200017b826200014e565b9050919050565b6200018d816200016e565b81146200019957600080fd5b50565b600081519050620001ad8162000182565b92915050565b600060208284031215620001cc57620001cb62000149565b5b6000620001dc848285016200019c565b91505092915050565b6131a380620001f56000396000f3fe608060405234801561001057600080fd5b50600436106101005760003560e01c8063899346c711610097578063d19fb80f11610066578063d19fb80f146102b4578063dc4b30e0146102e4578063e8ededa614610300578063f2fde38b1461033157610100565b8063899346c7146102255780638da5cb5b146102435780639d71077714610261578063d16ff4c81461029657610100565b80635ad77fdb116100d35780635ad77fdb146101b35780635be5e3ec146101cf578063715018a6146101eb578063751de421146101f557610100565b80630ee294041461010557806345519ddb146101355780634bd46448146101655780635313837b14610195575b600080fd5b61011f600480360381019061011a9190611bde565b61034d565b60405161012c9190611c4c565b60405180910390f35b61014f600480360381019061014a9190611dad565b610420565b60405161015c9190611e3f565b60405180910390f35b61017f600480360381019061017a9190611e5a565b610769565b60405161018c9190611fcf565b60405180910390f35b61019d610970565b6040516101aa9190611e3f565b60405180910390f35b6101cd60048036038101906101c89190611ff1565b610976565b005b6101e960048036038101906101e49190612031565b610af8565b005b6101f3610e6e565b005b61020f600480360381019061020a9190611e5a565b610e82565b60405161021c91906120db565b60405180910390f35b61022d611096565b60405161023a9190611e3f565b60405180910390f35b61024b61109c565b604051610258919061210c565b60405180910390f35b61027b60048036038101906102769190612127565b6110c5565b60405161028d9695949392919061224d565b60405180910390f35b61029e611322565b6040516102ab9190611e3f565b60405180910390f35b6102ce60048036038101906102c99190612456565b611328565b6040516102db9190611e3f565b60405180910390f35b6102fe60048036038101906102f99190611e5a565b611622565b005b61031a60048036038101906103159190612127565b61174f565b604051610328929190612525565b60405180910390f35b61034b6004803603810190610346919061255c565b6118fa565b005b60008060046000858152602001908152602001600020905080600b0160009054906101000a900460ff166103b6576040517f08c379a00000000000000000000000000000000000000000000000000000000081526004016103ad906125d5565b60405180910390fd5b8060090160008673ffffffffffffffffffffffffffffffffffffffff1673ffffffffffffffffffffffffffffffffffffffff168152602001908152602001600020600084815260200190815260200160002060009054906101000a900460ff169150509392505050565b600061042a61197d565b600060046000878152602001908152602001600020905080600b0160009054906101000a900460ff16610492576040517f08c379a0000000000000000000000000000000000000000000000000000000008152600401610489906125d5565b60405180910390fd5b806004015442106104d8576040517f08c379a00000000000000000000000000000000000000000000000000000000081526004016104cf90612641565b60405180910390fd5b60008160060160008781526020019081526020016000206000015403610533576040517f08c379a000000000000000000000000000000000000000000000000000000000815260040161052a906126ad565b60405180910390fd5b600073ffffffffffffffffffffffffffffffffffffffff168473ffffffffffffffffffffffffffffffffffffffff16036105a2576040517f08c379a000000000000000000000000000000000000000000000000000000000815260040161059990612719565b60405180910390fd5b60008351116105e6576040517f08c379a00000000000000000000000000000000000000000000000000000000081526004016105dd90612785565b60405180910390fd5b600260008154809291906105f9906127d4565b9190505591506040518060c001604052808381526020018573ffffffffffffffffffffffffffffffffffffffff16815260200184815260200186815260200160008152602001600015158152508160080160008481526020019081526020016000206000820151816000015560208201518160010160006101000a81548173ffffffffffffffffffffffffffffffffffffffff021916908373ffffffffffffffffffffffffffffffffffffffff16021790555060408201518160020190816106c19190612a28565b50606082015181600301556080820151816004015560a08201518160050160006101000a81548160ff021916908315150217905550905050806007018290806001815401808255809150506001900390600052602060002001600090919091909150558482877f6feeb70f51a9395788aee206dbee3db7441134061b8108a97ca3357a51771aea8787604051610758929190612afa565b60405180910390a450949350505050565b610771611ac7565b600060046000858152602001908152602001600020905080600b0160009054906101000a900460ff166107d9576040517f08c379a00000000000000000000000000000000000000000000000000000000081526004016107d0906125d5565b60405180910390fd5b60008160080160008581526020019081526020016000206040518060c0016040529081600082015481526020016001820160009054906101000a900473ffffffffffffffffffffffffffffffffffffffff1673ffffffffffffffffffffffffffffffffffffffff1673ffffffffffffffffffffffffffffffffffffffff16815260200160028201805461086b9061284b565b80601f01602080910402602001604051908101604052809291908181526020018280546108979061284b565b80156108e45780601f106108b9576101008083540402835291602001916108e4565b820191906000526020600020905b8154815290600101906020018083116108c757829003601f168201915b5050505050815260200160038201548152602001600482015481526020016005820160009054906101000a900460ff16151515158152505090506000816000015103610965576040517f08c379a000000000000000000000000000000000000000000000000000000000815260040161095c90612b76565b60405180910390fd5b809250505092915050565b60015481565b61097e61197d565b600060046000848152602001908152602001600020905080600b0160009054906101000a900460ff166109e6576040517f08c379a00000000000000000000000000000000000000000000000000000000081526004016109dd906125d5565b60405180910390fd5b600073ffffffffffffffffffffffffffffffffffffffff168273ffffffffffffffffffffffffffffffffffffffff1603610a55576040517f08c379a0000000000000000000000000000000000000000000000000000000008152600401610a4c90612be2565b60405180910390fd5b600181600a0160008473ffffffffffffffffffffffffffffffffffffffff1673ffffffffffffffffffffffffffffffffffffffff16815260200190815260200160002060006101000a81548160ff0219169083151502179055508173ffffffffffffffffffffffffffffffffffffffff16837fc821f3f69f5ec12a0eb4c36ddd911c89b5c4e441d493be94980d2e34a742549160405160405180910390a3505050565b600060046000858152602001908152602001600020905080600b0160009054906101000a900460ff16610b60576040517f08c379a0000000000000000000000000000000000000000000000000000000008152600401610b57906125d5565b60405180910390fd5b80600301544210158015610b78575080600401544211155b610bb7576040517f08c379a0000000000000000000000000000000000000000000000000000000008152600401610bae90612c4e565b60405180910390fd5b80600a0160003373ffffffffffffffffffffffffffffffffffffffff1673ffffffffffffffffffffffffffffffffffffffff16815260200190815260200160002060009054906101000a900460ff16610c45576040517f08c379a0000000000000000000000000000000000000000000000000000000008152600401610c3c90612cba565b60405180910390fd5b8060090160003373ffffffffffffffffffffffffffffffffffffffff1673ffffffffffffffffffffffffffffffffffffffff168152602001908152602001600020600084815260200190815260200160002060009054906101000a900460ff1615610ce5576040517f08c379a0000000000000000000000000000000000000000000000000000000008152600401610cdc90612d26565b60405180910390fd5b600081600801600084815260200190815260200160002090506000816000015414158015610d165750838160030154145b610d55576040517f08c379a0000000000000000000000000000000000000000000000000000000008152600401610d4c90612d92565b60405180910390fd5b8060050160009054906101000a900460ff16610da6576040517f08c379a0000000000000000000000000000000000000000000000000000000008152600401610d9d90612dfe565b60405180910390fd5b6001816004016000828254610dbb9190612e1e565b9250508190555060018260090160003373ffffffffffffffffffffffffffffffffffffffff1673ffffffffffffffffffffffffffffffffffffffff168152602001908152602001600020600086815260200190815260200160002060006101000a81548160ff0219169083151502179055508284867f76edd04c2c86a17224eb2e525b7180aec5f53e1e537a188351a6c9ed3b60e2d333604051610e5f919061210c565b60405180910390a45050505050565b610e7661197d565b610e8060006119fb565b565b610e8a611b15565b600060046000858152602001908152602001600020905080600b0160009054906101000a900460ff16610ef2576040517f08c379a0000000000000000000000000000000000000000000000000000000008152600401610ee9906125d5565b60405180910390fd5b600081600601600085815260200190815260200160002060405180606001604052908160008201548152602001600182018054610f2e9061284b565b80601f0160208091040260200160405190810160405280929190818152602001828054610f5a9061284b565b8015610fa75780601f10610f7c57610100808354040283529160200191610fa7565b820191906000526020600020905b815481529060010190602001808311610f8a57829003601f168201915b50505050508152602001600282018054610fc09061284b565b80601f0160208091040260200160405190810160405280929190818152602001828054610fec9061284b565b80156110395780601f1061100e57610100808354040283529160200191611039565b820191906000526020600020905b81548152906001019060200180831161101c57829003601f168201915b5050505050815250509050600081600001510361108b576040517f08c379a0000000000000000000000000000000000000000000000000000000008152600401611082906126ad565b60405180910390fd5b809250505092915050565b60035481565b60008060009054906101000a900473ffffffffffffffffffffffffffffffffffffffff16905090565b606080600080606080600060046000898152602001908152602001600020905080600b0160009054906101000a900460ff16611136576040517f08c379a000000000000000000000000000000000000000000000000000000000815260040161112d906125d5565b60405180910390fd5b806001018160020182600301548360040154846005018560070185805461115c9061284b565b80601f01602080910402602001604051908101604052809291908181526020018280546111889061284b565b80156111d55780601f106111aa576101008083540402835291602001916111d5565b820191906000526020600020905b8154815290600101906020018083116111b857829003601f168201915b505050505095508480546111e89061284b565b80601f01602080910402602001604051908101604052809291908181526020018280546112149061284b565b80156112615780601f1061123657610100808354040283529160200191611261565b820191906000526020600020905b81548152906001019060200180831161124457829003601f168201915b50505050509450818054806020026020016040519081016040528092919081815260200182805480156112b357602002820191906000526020600020905b81548152602001906001019080831161129f575b505050505091508080548060200260200160405190810160405280929190818152602001828054801561130557602002820191906000526020600020905b8154815260200190600101908083116112f1575b505050505090509650965096509650965096505091939550919395565b60025481565b600061133261197d565b6000865111611376576040517f08c379a000000000000000000000000000000000000000000000000000000000815260040161136d90612e9e565b60405180910390fd5b838311801561138457504283115b6113c3576040517f08c379a00000000000000000000000000000000000000000000000000000000081526004016113ba90612f0a565b60405180910390fd5b42841015611406576040517f08c379a00000000000000000000000000000000000000000000000000000000081526004016113fd90612f76565b60405180910390fd5b600082511161144a576040517f08c379a000000000000000000000000000000000000000000000000000000000815260040161144190612fe2565b60405180910390fd5b6001600081548092919061145d906127d4565b9190505590506000600460008381526020019081526020016000209050818160000181905550868160010190816114949190612a28565b50858160020190816114a69190612a28565b50848160030181905550838160040181905550600181600b0160006101000a81548160ff02191690831515021790555060005b83518110156115db576000600360008154809291906114f7906127d4565b919050559050604051806060016040528082815260200186848151811061152157611520613002565b5b602002602001015160200151815260200186848151811061154557611544613002565b5b6020026020010151604001518152508360060160008381526020019081526020016000206000820151816000015560208201518160010190816115889190612a28565b50604082015181600201908161159e9190612a28565b50905050826005018190806001815401808255809150506001900390600052602060002001600090919091909150555080806001019150506114d9565b50817fe7a0aae5d733e07e246dea86213a1ac1b0aa8554bde889bb75c12752f44e53d988878760405161161093929190613031565b60405180910390a25095945050505050565b61162a61197d565b600060046000848152602001908152602001600020905080600b0160009054906101000a900460ff16611692576040517f08c379a0000000000000000000000000000000000000000000000000000000008152600401611689906125d5565b60405180910390fd5b6000816008016000848152602001908152602001600020905060008160000154036116f2576040517f08c379a00000000000000000000000000000000000000000000000000000000081526004016116e990612b76565b60405180910390fd5b60018160050160006101000a81548160ff02191690831515021790555082847f6679f17fbfa37aed5803ac0e19400aaa0feee683b69dad2532ecd6824589405960016040516117419190611c4c565b60405180910390a350505050565b606080600060046000858152602001908152602001600020905080600b0160009054906101000a900460ff166117ba576040517f08c379a00000000000000000000000000000000000000000000000000000000081526004016117b1906125d5565b60405180910390fd5b6000816007018054905090508067ffffffffffffffff8111156117e0576117df611c82565b5b60405190808252806020026020018201604052801561180e5781602001602082028036833780820191505090505b5093508067ffffffffffffffff81111561182b5761182a611c82565b5b6040519080825280602002602001820160405280156118595781602001602082028036833780820191505090505b50925060005b818110156118f257600083600701828154811061187f5761187e613002565b5b90600052602060002001549050808683815181106118a05761189f613002565b5b602002602001018181525050836008016000828152602001908152602001600020600401548583815181106118d8576118d7613002565b5b60200260200101818152505050808060010191505061185f565b505050915091565b61190261197d565b600073ffffffffffffffffffffffffffffffffffffffff168173ffffffffffffffffffffffffffffffffffffffff1603611971576040517f08c379a0000000000000000000000000000000000000000000000000000000008152600401611968906130e1565b60405180910390fd5b61197a816119fb565b50565b611985611abf565b73ffffffffffffffffffffffffffffffffffffffff166119a361109c565b73ffffffffffffffffffffffffffffffffffffffff16146119f9576040517f08c379a00000000000000000000000000000000000000000000000000000000081526004016119f09061314d565b60405180910390fd5b565b60008060009054906101000a900473ffffffffffffffffffffffffffffffffffffffff169050816000806101000a81548173ffffffffffffffffffffffffffffffffffffffff021916908373ffffffffffffffffffffffffffffffffffffffff1602179055508173ffffffffffffffffffffffffffffffffffffffff168173ffffffffffffffffffffffffffffffffffffffff167f8be0079c531659141344cd1fd0a4f28419497f9722a3daafe3b4186f6b6457e060405160405180910390a35050565b600033905090565b6040518060c0016040528060008152602001600073ffffffffffffffffffffffffffffffffffffffff1681526020016060815260200160008152602001600081526020016000151581525090565b60405180606001604052806000815260200160608152602001606081525090565b6000604051905090565b600080fd5b600080fd5b600073ffffffffffffffffffffffffffffffffffffffff82169050919050565b6000611b7582611b4a565b9050919050565b611b8581611b6a565b8114611b9057600080fd5b50565b600081359050611ba281611b7c565b92915050565b6000819050919050565b611bbb81611ba8565b8114611bc657600080fd5b50565b600081359050611bd881611bb2565b92915050565b600080600060608486031215611bf757611bf6611b40565b5b6000611c0586828701611b93565b9350506020611c1686828701611bc9565b9250506040611c2786828701611bc9565b9150509250925092565b60008115159050919050565b611c4681611c31565b82525050565b6000602082019050611c616000830184611c3d565b92915050565b600080fd5b600080fd5b6000601f19601f8301169050919050565b7f4e487b7100000000000000000000000000000000000000000000000000000000600052604160045260246000fd5b611cba82611c71565b810181811067ffffffffffffffff82111715611cd957611cd8611c82565b5b80604052505050565b6000611cec611b36565b9050611cf88282611cb1565b919050565b600067ffffffffffffffff821115611d1857611d17611c82565b5b611d2182611c71565b9050602081019050919050565b82818337600083830152505050565b6000611d50611d4b84611cfd565b611ce2565b905082815260208101848484011115611d6c57611d6b611c6c565b5b611d77848285611d2e565b509392505050565b600082601f830112611d9457611d93611c67565b5b8135611da4848260208601611d3d565b91505092915050565b60008060008060808587031215611dc757611dc6611b40565b5b6000611dd587828801611bc9565b9450506020611de687828801611bc9565b9350506040611df787828801611b93565b925050606085013567ffffffffffffffff811115611e1857611e17611b45565b5b611e2487828801611d7f565b91505092959194509250565b611e3981611ba8565b82525050565b6000602082019050611e546000830184611e30565b92915050565b60008060408385031215611e7157611e70611b40565b5b6000611e7f85828601611bc9565b9250506020611e9085828601611bc9565b9150509250929050565b611ea381611ba8565b82525050565b611eb281611b6a565b82525050565b600081519050919050565b600082825260208201905092915050565b60005b83811015611ef2578082015181840152602081019050611ed7565b60008484015250505050565b6000611f0982611eb8565b611f138185611ec3565b9350611f23818560208601611ed4565b611f2c81611c71565b840191505092915050565b611f4081611c31565b82525050565b600060c083016000830151611f5e6000860182611e9a565b506020830151611f716020860182611ea9565b5060408301518482036040860152611f898282611efe565b9150506060830151611f9e6060860182611e9a565b506080830151611fb16080860182611e9a565b5060a0830151611fc460a0860182611f37565b508091505092915050565b60006020820190508181036000830152611fe98184611f46565b905092915050565b6000806040838503121561200857612007611b40565b5b600061201685828601611bc9565b925050602061202785828601611b93565b9150509250929050565b60008060006060848603121561204a57612049611b40565b5b600061205886828701611bc9565b935050602061206986828701611bc9565b925050604061207a86828701611bc9565b9150509250925092565b600060608301600083015161209c6000860182611e9a565b50602083015184820360208601526120b48282611efe565b915050604083015184820360408601526120ce8282611efe565b9150508091505092915050565b600060208201905081810360008301526120f58184612084565b905092915050565b61210681611b6a565b82525050565b600060208201905061212160008301846120fd565b92915050565b60006020828403121561213d5761213c611b40565b5b600061214b84828501611bc9565b91505092915050565b600082825260208201905092915050565b600061217082611eb8565b61217a8185612154565b935061218a818560208601611ed4565b61219381611c71565b840191505092915050565b600081519050919050565b600082825260208201905092915050565b6000819050602082019050919050565b60006121d68383611e9a565b60208301905092915050565b6000602082019050919050565b60006121fa8261219e565b61220481856121a9565b935061220f836121ba565b8060005b8381101561224057815161222788826121ca565b9750612232836121e2565b925050600181019050612213565b5085935050505092915050565b600060c08201905081810360008301526122678189612165565b9050818103602083015261227b8188612165565b905061228a6040830187611e30565b6122976060830186611e30565b81810360808301526122a981856121ef565b905081810360a08301526122bd81846121ef565b9050979650505050505050565b600067ffffffffffffffff8211156122e5576122e4611c82565b5b602082029050602081019050919050565b600080fd5b600080fd5b600080fd5b60006060828403121561231b5761231a6122fb565b5b6123256060611ce2565b9050600061233584828501611bc9565b600083015250602082013567ffffffffffffffff81111561235957612358612300565b5b61236584828501611d7f565b602083015250604082013567ffffffffffffffff81111561238957612388612300565b5b61239584828501611d7f565b60408301525092915050565b60006123b46123af846122ca565b611ce2565b905080838252602082019050602084028301858111156123d7576123d66122f6565b5b835b8181101561241e57803567ffffffffffffffff8111156123fc576123fb611c67565b5b8086016124098982612305565b855260208501945050506020810190506123d9565b5050509392505050565b600082601f83011261243d5761243c611c67565b5b813561244d8482602086016123a1565b91505092915050565b600080600080600060a0868803121561247257612471611b40565b5b600086013567ffffffffffffffff8111156124905761248f611b45565b5b61249c88828901611d7f565b955050602086013567ffffffffffffffff8111156124bd576124bc611b45565b5b6124c988828901611d7f565b94505060406124da88828901611bc9565b93505060606124eb88828901611bc9565b925050608086013567ffffffffffffffff81111561250c5761250b611b45565b5b61251888828901612428565b9150509295509295909350565b6000604082019050818103600083015261253f81856121ef565b9050818103602083015261255381846121ef565b90509392505050565b60006020828403121561257257612571611b40565b5b600061258084828501611b93565b91505092915050565b7f456c656374696f6e206e6f7420666f756e640000000000000000000000000000600082015250565b60006125bf601283612154565b91506125ca82612589565b602082019050919050565b600060208201905081810360008301526125ee816125b2565b9050919050565b7f456c656374696f6e20656e646564000000000000000000000000000000000000600082015250565b600061262b600e83612154565b9150612636826125f5565b602082019050919050565b6000602082019050818103600083015261265a8161261e565b9050919050565b7f506f736974696f6e206e6f7420666f756e640000000000000000000000000000600082015250565b6000612697601283612154565b91506126a282612661565b602082019050919050565b600060208201905081810360008301526126c68161268a565b9050919050565b7f496e76616c69642077616c6c6574000000000000000000000000000000000000600082015250565b6000612703600e83612154565b915061270e826126cd565b602082019050919050565b60006020820190508181036000830152612732816126f6565b9050919050565b7f4e616d6520726571756972656400000000000000000000000000000000000000600082015250565b600061276f600d83612154565b915061277a82612739565b602082019050919050565b6000602082019050818103600083015261279e81612762565b9050919050565b7f4e487b7100000000000000000000000000000000000000000000000000000000600052601160045260246000fd5b60006127df82611ba8565b91507fffffffffffffffffffffffffffffffffffffffffffffffffffffffffffffffff8203612811576128106127a5565b5b600182019050919050565b7f4e487b7100000000000000000000000000000000000000000000000000000000600052602260045260246000fd5b6000600282049050600182168061286357607f821691505b6020821081036128765761287561281c565b5b50919050565b60008190508160005260206000209050919050565b60006020601f8301049050919050565b600082821b905092915050565b6000600883026128de7fffffffffffffffffffffffffffffffffffffffffffffffffffffffffffffffff826128a1565b6128e886836128a1565b95508019841693508086168417925050509392505050565b6000819050919050565b600061292561292061291b84611ba8565b612900565b611ba8565b9050919050565b6000819050919050565b61293f8361290a565b61295361294b8261292c565b8484546128ae565b825550505050565b600090565b61296861295b565b612973818484612936565b505050565b5b818110156129975761298c600082612960565b600181019050612979565b5050565b601f8211156129dc576129ad8161287c565b6129b684612891565b810160208510156129c5578190505b6129d96129d185612891565b830182612978565b50505b505050565b600082821c905092915050565b60006129ff600019846008026129e1565b1980831691505092915050565b6000612a1883836129ee565b9150826002028217905092915050565b612a3182611eb8565b67ffffffffffffffff811115612a4a57612a49611c82565b5b612a54825461284b565b612a5f82828561299b565b600060209050601f831160018114612a925760008415612a80578287015190505b612a8a8582612a0c565b865550612af2565b601f198416612aa08661287c565b60005b82811015612ac857848901518255600182019150602085019450602081019050612aa3565b86831015612ae55784890151612ae1601f8916826129ee565b8355505b6001600288020188555050505b505050505050565b6000604082019050612b0f60008301856120fd565b8181036020830152612b218184612165565b90509392505050565b7f43616e646964617465206e6f7420666f756e6400000000000000000000000000600082015250565b6000612b60601383612154565b9150612b6b82612b2a565b602082019050919050565b60006020820190508181036000830152612b8f81612b53565b9050919050565b7f496e76616c696420766f74657200000000000000000000000000000000000000600082015250565b6000612bcc600d83612154565b9150612bd782612b96565b602082019050919050565b60006020820190508181036000830152612bfb81612bbf565b9050919050565b7f4f7574206f662077696e646f7700000000000000000000000000000000000000600082015250565b6000612c38600d83612154565b9150612c4382612c02565b602082019050919050565b60006020820190508181036000830152612c6781612c2b565b9050919050565b7f4e6f7420656c696769626c650000000000000000000000000000000000000000600082015250565b6000612ca4600c83612154565b9150612caf82612c6e565b602082019050919050565b60006020820190508181036000830152612cd381612c97565b9050919050565b7f416c726561647920766f74656400000000000000000000000000000000000000600082015250565b6000612d10600d83612154565b9150612d1b82612cda565b602082019050919050565b60006020820190508181036000830152612d3f81612d03565b9050919050565b7f496e76616c69642063616e646964617465000000000000000000000000000000600082015250565b6000612d7c601183612154565b9150612d8782612d46565b602082019050919050565b60006020820190508181036000830152612dab81612d6f565b9050919050565b7f43616e646964617465206e6f7420766572696669656400000000000000000000600082015250565b6000612de8601683612154565b9150612df382612db2565b602082019050919050565b60006020820190508181036000830152612e1781612ddb565b9050919050565b6000612e2982611ba8565b9150612e3483611ba8565b9250828201905080821115612e4c57612e4b6127a5565b5b92915050565b7f5469746c65207265717569726564000000000000000000000000000000000000600082015250565b6000612e88600e83612154565b9150612e9382612e52565b602082019050919050565b60006020820190508181036000830152612eb781612e7b565b9050919050565b7f496e76616c69642074696d656672616d65000000000000000000000000000000600082015250565b6000612ef4601183612154565b9150612eff82612ebe565b602082019050919050565b60006020820190508181036000830152612f2381612ee7565b9050919050565b7f53746172742074696d6520696e20706173740000000000000000000000000000600082015250565b6000612f60601283612154565b9150612f6b82612f2a565b602082019050919050565b60006020820190508181036000830152612f8f81612f53565b9050919050565b7f4e6f20706f736974696f6e730000000000000000000000000000000000000000600082015250565b6000612fcc600c83612154565b9150612fd782612f96565b602082019050919050565b60006020820190508181036000830152612ffb81612fbf565b9050919050565b7f4e487b7100000000000000000000000000000000000000000000000000000000600052603260045260246000fd5b6000606082019050818103600083015261304b8186612165565b905061305a6020830185611e30565b6130676040830184611e30565b949350505050565b7f4f776e61626c653a206e6577206f776e657220697320746865207a65726f206160008201527f6464726573730000000000000000000000000000000000000000000000000000602082015250565b60006130cb602683612154565b91506130d68261306f565b604082019050919050565b600060208201905081810360008301526130fa816130be565b9050919050565b7f4f776e61626c653a2063616c6c6572206973206e6f7420746865206f776e6572600082015250565b6000613137602083612154565b915061314282613101565b602082019050919050565b600060208201905081810360008301526131668161312a565b905091905056fea264697066735822122039f7776f06282fc60119f33caf35908e1eefba49744087b21dfbfdde5d73434564736f6c63430008180033",
  "linkReferences": {},
  "deployedLinkReferences": {}
}