{
  "_format": "hh-sol-artifact-1",
  "contractName": "Voting",
  "sourceName": "contracts/Voting.sol",
  "abi": [
    {
      "inputs": [
        {
          "internalType": "address",
          "name": "initialOwner",
          "type": "address"
        }
      ],
      "stateMutability": "nonpayable",
      "type": "constructor"
    },
    {
      "anonymous": false,
      "inputs": [
        {
          "indexed": true,
          "internalType": "address",
          "name": "previousOwner",
          "type": "address"
        },
        {
          "indexed": true,
          "internalType": "address",
          "name": "newOwner",
          "type": "address"
        }
      ],
      "name": "OwnershipTransferred",
      "type": "event"
    },
    {
      "anonymous": false,
      "inputs": [
        {
          "indexed": true,
          "internalType": "uint256",
          "name": "pollId",
          "type": "uint256"
        },
        {
          "indexed": false,
          "internalType": "string",
          "name": "question",
          "type": "string"
        },
        {
          "indexed": false,
          "internalType": "uint256",
          "name": "startTime",
          "type": "uint256"
        },
        {
          "indexed": false,
          "internalType": "uint256",
          "name": "endTime",
          "type": "uint256"
        }
      ],
      "name": "PollCreated",
      "type": "event"
    },
    {
      "anonymous": false,
      "inputs": [
        {
          "indexed": true,
          "internalType": "uint256",
          "name": "pollId",
          "type": "uint256"
        }
      ],
      "name": "PollEnded",
      "type": "event"
    },
    {
      "anonymous": false,
      "inputs": [
        {
          "indexed": true,
          "internalType": "uint256",
          "name": "pollId",
          "type": "uint256"
        },
        {
          "indexed": true,
          "internalType": "uint256",
          "name": "option",
          "type": "uint256"
        },
        {
          "indexed": true,
          "internalType": "address",
          "name": "voter",
          "type": "address"
        }
      ],
      "name": "VoteCast",
      "type": "event"
    },
    {
      "anonymous": false,
      "inputs": [
        {
          "indexed": true,
          "internalType": "address",
          "name": "voter",
          "type": "address"
        }
      ],
      "name": "VoterWhitelisted",
      "type": "event"
    },
    {
      "inputs": [
        {
          "internalType": "string",
          "name": "question",
          "type": "string"
        },
        {
          "internalType": "string[]",
          "name": "options",
          "type": "string[]"
        },
        {
          "internalType": "uint256",
          "name": "durationSeconds",
          "type": "uint256"
        }
      ],
      "name": "createPoll",
      "outputs": [],
      "stateMutability": "nonpayable",
      "type": "function"
    },
    {
      "inputs": [
        {
          "internalType": "uint256",
          "name": "pollId",
          "type": "uint256"
        }
      ],
      "name": "endPoll",
      "outputs": [],
      "stateMutability": "nonpayable",
      "type": "function"
    },
    {
      "inputs": [
        {
          "internalType": "uint256",
          "name": "pollId",
          "type": "uint256"
        }
      ],
      "name": "getPollResults",
      "outputs": [
        {
          "internalType": "uint256[]",
          "name": "",
          "type": "uint256[]"
        }
      ],
      "stateMutability": "view",
      "type": "function"
    },
    {
      "inputs": [],
      "name": "owner",
      "outputs": [
        {
          "internalType": "address",
          "name": "",
          "type": "address"
        }
      ],
      "stateMutability": "view",
      "type": "function"
    },
    {
      "inputs": [
        {
          "internalType": "uint256",
          "name": "",
          "type": "uint256"
        }
      ],
      "name": "polls",
      "outputs": [
        {
          "internalType": "string",
          "name": "question",
          "type": "string"
        },
        {
          "internalType": "bool",
          "name": "active",
          "type": "bool"
        },
        {
          "internalType": "uint256",
          "name": "startTime",
          "type": "uint256"
        },
        {
          "internalType": "uint256",
          "name": "endTime",
          "type": "uint256"
        }
      ],
      "stateMutability": "view",
      "type": "function"
    },
    {
      "inputs": [],
      "name": "renounceOwnership",
      "outputs": [],
      "stateMutability": "nonpayable",
      "type": "function"
    },
    {
      "inputs": [
        {
          "internalType": "address",
          "name": "newOwner",
          "type": "address"
        }
      ],
      "name": "transferOwnership",
      "outputs": [],
      "stateMutability": "nonpayable",
      "type": "function"
    },
    {
      "inputs": [
        {
          "internalType": "uint256",
          "name": "pollId",
          "type": "uint256"
        },
        {
          "internalType": "uint256",
          "name": "option",
          "type": "uint256"
        }
      ],
      "name": "vote",
      "outputs": [],
      "stateMutability": "nonpayable",
      "type": "function"
    },
    {
      "inputs": [
        {
          "internalType": "address",
          "name": "voter",
          "type": "address"
        }
      ],
      "name": "whitelistVoter",
      "outputs": [],
      "stateMutability": "nonpayable",
      "type": "function"
    },
    {
      "inputs": [
        {
          "internalType": "address",
          "name": "",
          "type": "address"
        }
      ],
      "name": "whitelistedVoters",
      "outputs": [
        {
          "internalType": "bool",
          "name": "",
          "type": "bool"
        }
      ],
      "stateMutability": "view",
      "type": "function"
    }
  ],
  "bytecode": "0x60806040523480156200001157600080fd5b5060405162001f4a38038062001f4a8339818101604052810190620000379190620001a5565b620000576200004b6200006f60201b60201c565b6200007760201b60201c565b62000068816200007760201b60201c565b50620001d7565b600033905090565b60008060009054906101000a900473ffffffffffffffffffffffffffffffffffffffff169050816000806101000a81548173ffffffffffffffffffffffffffffffffffffffff021916908373ffffffffffffffffffffffffffffffffffffffff1602179055508173ffffffffffffffffffffffffffffffffffffffff168173ffffffffffffffffffffffffffffffffffffffff167f8be0079c531659141344cd1fd0a4f28419497f9722a3daafe3b4186f6b6457e060405160405180910390a35050565b600080fd5b600073ffffffffffffffffffffffffffffffffffffffff82169050919050565b60006200016d8262000140565b9050919050565b6200017f8162000160565b81146200018b57600080fd5b50565b6000815190506200019f8162000174565b92915050565b600060208284031215620001be57620001bd6200013b565b5b6000620001ce848285016200018e565b91505092915050565b611d6380620001e76000396000f3fe608060405234801561001057600080fd5b506004361061009e5760003560e01c8063b384abef11610066578063b384abef1461015e578063bddf1ce91461017a578063f2fde38b14610196578063f43b8778146101b2578063f8c860f4146101ce5761009e565b806333b4097b146100a3578063715018a6146100d357806378d42bda146100dd5780638da5cb5b1461010d578063ac2f00741461012b575b600080fd5b6100bd60048036038101906100b89190610e26565b6101ea565b6040516100ca9190610f11565b60405180910390f35b6100db61035e565b005b6100f760048036038101906100f29190610f91565b610372565b6040516101049190610fd9565b60405180910390f35b610115610392565b6040516101229190611003565b60405180910390f35b61014560048036038101906101409190610e26565b6103bb565b60405161015594939291906110bd565b60405180910390f35b61017860048036038101906101739190611109565b610490565b005b610194600480360381019061018f9190610f91565b6107da565b005b6101b060048036038101906101ab9190610f91565b6108ef565b005b6101cc60048036038101906101c79190610e26565b610972565b005b6101e860048036038101906101e39190611364565b610a86565b005b60606001805490508210610233576040517f08c379a000000000000000000000000000000000000000000000000000000000815260040161022a9061143b565b60405180910390fd5b6000600183815481106102495761024861145b565b5b906000526020600020906007020190508060040160009054906101000a900460ff16156102ab576040517f08c379a00000000000000000000000000000000000000000000000000000000081526004016102a2906114fc565b60405180910390fd5b6000816001018054905067ffffffffffffffff8111156102ce576102cd611153565b5b6040519080825280602002602001820160405280156102fc5781602001602082028036833780820191505090505b50905060005b8260010180549050811015610353578260020160008281526020019081526020016000205482828151811061033a5761033961145b565b5b6020026020010181815250508080600101915050610302565b508092505050919050565b610366610bb8565b6103706000610c36565b565b60026020528060005260406000206000915054906101000a900460ff1681565b60008060009054906101000a900473ffffffffffffffffffffffffffffffffffffffff16905090565b600181815481106103cb57600080fd5b90600052602060002090600702016000915090508060000180546103ee9061154b565b80601f016020809104026020016040519081016040528092919081815260200182805461041a9061154b565b80156104675780601f1061043c57610100808354040283529160200191610467565b820191906000526020600020905b81548152906001019060200180831161044a57829003601f168201915b5050505050908060040160009054906101000a900460ff16908060050154908060060154905084565b60018054905082106104d7576040517f08c379a00000000000000000000000000000000000000000000000000000000081526004016104ce9061143b565b60405180910390fd5b6000600183815481106104ed576104ec61145b565b5b906000526020600020906007020190508060040160009054906101000a900460ff1661054e576040517f08c379a0000000000000000000000000000000000000000000000000000000008152600401610545906115c8565b60405180910390fd5b80600501544210158015610566575080600601544211155b6105a5576040517f08c379a000000000000000000000000000000000000000000000000000000000815260040161059c90611634565b60405180910390fd5b600260003373ffffffffffffffffffffffffffffffffffffffff1673ffffffffffffffffffffffffffffffffffffffff16815260200190815260200160002060009054906101000a900460ff16610631576040517f08c379a0000000000000000000000000000000000000000000000000000000008152600401610628906116a0565b60405180910390fd5b8060030160003373ffffffffffffffffffffffffffffffffffffffff1673ffffffffffffffffffffffffffffffffffffffff16815260200190815260200160002060009054906101000a900460ff16156106c0576040517f08c379a00000000000000000000000000000000000000000000000000000000081526004016106b79061170c565b60405180910390fd5b80600101805490508210610709576040517f08c379a000000000000000000000000000000000000000000000000000000000815260040161070090611778565b60405180910390fd5b6001816002016000848152602001908152602001600020600082825461072f91906117c7565b9250508190555060018160030160003373ffffffffffffffffffffffffffffffffffffffff1673ffffffffffffffffffffffffffffffffffffffff16815260200190815260200160002060006101000a81548160ff0219169083151502179055503373ffffffffffffffffffffffffffffffffffffffff1682847f7fe1d4e6b34e228b5dc059fcdc037c71b216fb2417f47c171e505144a5e4f5fc60405160405180910390a4505050565b6107e2610bb8565b600073ffffffffffffffffffffffffffffffffffffffff168173ffffffffffffffffffffffffffffffffffffffff1603610851576040517f08c379a000000000000000000000000000000000000000000000000000000000815260040161084890611847565b60405180910390fd5b6001600260008373ffffffffffffffffffffffffffffffffffffffff1673ffffffffffffffffffffffffffffffffffffffff16815260200190815260200160002060006101000a81548160ff0219169083151502179055508073ffffffffffffffffffffffffffffffffffffffff167f5cb979827581f5a2d6accf830511f42bc79705dde54d001643bb14fea7f75d5860405160405180910390a250565b6108f7610bb8565b600073ffffffffffffffffffffffffffffffffffffffff168173ffffffffffffffffffffffffffffffffffffffff1603610966576040517f08c379a000000000000000000000000000000000000000000000000000000000815260040161095d906118d9565b60405180910390fd5b61096f81610c36565b50565b61097a610bb8565b60018054905081106109c1576040517f08c379a00000000000000000000000000000000000000000000000000000000081526004016109b89061143b565b60405180910390fd5b6000600182815481106109d7576109d661145b565b5b906000526020600020906007020190508060040160009054906101000a900460ff16610a38576040517f08c379a0000000000000000000000000000000000000000000000000000000008152600401610a2f90611945565b60405180910390fd5b60008160040160006101000a81548160ff021916908315150217905550817f14d4cfc1c2a6f37c8f97ad80fc12bd9d943ea6d4dd7684137850125597ce9bf760405160405180910390a25050565b610a8e610bb8565b6001825111610ad2576040517f08c379a0000000000000000000000000000000000000000000000000000000008152600401610ac9906119b1565b60405180910390fd5b600042905060008282610ae591906117c7565b9050600060018081600181540180825580915050039060005260206000209060070201905085816000019081610b1b9190611b7d565b5084816001019080519060200190610b34929190610d02565b5060018160040160006101000a81548160ff02191690831515021790555082816005018190555081816006018190555060018080549050610b759190611c4f565b7f6304d459a1238719da7fda0b776e00c855ba5850f0a7f634eca6f8e985e4509f878585604051610ba893929190611c83565b60405180910390a2505050505050565b610bc0610cfa565b73ffffffffffffffffffffffffffffffffffffffff16610bde610392565b73ffffffffffffffffffffffffffffffffffffffff1614610c34576040517f08c379a0000000000000000000000000000000000000000000000000000000008152600401610c2b90611d0d565b60405180910390fd5b565b60008060009054906101000a900473ffffffffffffffffffffffffffffffffffffffff169050816000806101000a81548173ffffffffffffffffffffffffffffffffffffffff021916908373ffffffffffffffffffffffffffffffffffffffff1602179055508173ffffffffffffffffffffffffffffffffffffffff168173ffffffffffffffffffffffffffffffffffffffff167f8be0079c531659141344cd1fd0a4f28419497f9722a3daafe3b4186f6b6457e060405160405180910390a35050565b600033905090565b828054828255906000526020600020908101928215610d4a579160200282015b82811115610d49578251829081610d399190611b7d565b5091602001919060010190610d22565b5b509050610d579190610d5b565b5090565b5b80821115610d7b5760008181610d729190610d7f565b50600101610d5c565b5090565b508054610d8b9061154b565b6000825580601f10610d9d5750610dbc565b601f016020900490600052602060002090810190610dbb9190610dbf565b5b50565b5b80821115610dd8576000816000905550600101610dc0565b5090565b6000604051905090565b600080fd5b600080fd5b6000819050919050565b610e0381610df0565b8114610e0e57600080fd5b50565b600081359050610e2081610dfa565b92915050565b600060208284031215610e3c57610e3b610de6565b5b6000610e4a84828501610e11565b91505092915050565b600081519050919050565b600082825260208201905092915050565b6000819050602082019050919050565b610e8881610df0565b82525050565b6000610e9a8383610e7f565b60208301905092915050565b6000602082019050919050565b6000610ebe82610e53565b610ec88185610e5e565b9350610ed383610e6f565b8060005b83811015610f04578151610eeb8882610e8e565b9750610ef683610ea6565b925050600181019050610ed7565b5085935050505092915050565b60006020820190508181036000830152610f2b8184610eb3565b905092915050565b600073ffffffffffffffffffffffffffffffffffffffff82169050919050565b6000610f5e82610f33565b9050919050565b610f6e81610f53565b8114610f7957600080fd5b50565b600081359050610f8b81610f65565b92915050565b600060208284031215610fa757610fa6610de6565b5b6000610fb584828501610f7c565b91505092915050565b60008115159050919050565b610fd381610fbe565b82525050565b6000602082019050610fee6000830184610fca565b92915050565b610ffd81610f53565b82525050565b60006020820190506110186000830184610ff4565b92915050565b600081519050919050565b600082825260208201905092915050565b60005b8381101561105857808201518184015260208101905061103d565b60008484015250505050565b6000601f19601f8301169050919050565b60006110808261101e565b61108a8185611029565b935061109a81856020860161103a565b6110a381611064565b840191505092915050565b6110b781610df0565b82525050565b600060808201905081810360008301526110d78187611075565b90506110e66020830186610fca565b6110f360408301856110ae565b61110060608301846110ae565b95945050505050565b600080604083850312156111205761111f610de6565b5b600061112e85828601610e11565b925050602061113f85828601610e11565b9150509250929050565b600080fd5b600080fd5b7f4e487b7100000000000000000000000000000000000000000000000000000000600052604160045260246000fd5b61118b82611064565b810181811067ffffffffffffffff821117156111aa576111a9611153565b5b80604052505050565b60006111bd610ddc565b90506111c98282611182565b919050565b600067ffffffffffffffff8211156111e9576111e8611153565b5b6111f282611064565b9050602081019050919050565b82818337600083830152505050565b600061122161121c846111ce565b6111b3565b90508281526020810184848401111561123d5761123c61114e565b5b6112488482856111ff565b509392505050565b600082601f83011261126557611264611149565b5b813561127584826020860161120e565b91505092915050565b600067ffffffffffffffff82111561129957611298611153565b5b602082029050602081019050919050565b600080fd5b60006112c26112bd8461127e565b6111b3565b905080838252602082019050602084028301858111156112e5576112e46112aa565b5b835b8181101561132c57803567ffffffffffffffff81111561130a57611309611149565b5b8086016113178982611250565b855260208501945050506020810190506112e7565b5050509392505050565b600082601f83011261134b5761134a611149565b5b813561135b8482602086016112af565b91505092915050565b60008060006060848603121561137d5761137c610de6565b5b600084013567ffffffffffffffff81111561139b5761139a610deb565b5b6113a786828701611250565b935050602084013567ffffffffffffffff8111156113c8576113c7610deb565b5b6113d486828701611336565b92505060406113e586828701610e11565b9150509250925092565b7f496e76616c696420706f6c6c0000000000000000000000000000000000000000600082015250565b6000611425600c83611029565b9150611430826113ef565b602082019050919050565b6000602082019050818103600083015261145481611418565b9050919050565b7f4e487b7100000000000000000000000000000000000000000000000000000000600052603260045260246000fd5b7f506f6c6c206d75737420626520656e64656420746f207669657720726573756c60008201527f7473000000000000000000000000000000000000000000000000000000000000602082015250565b60006114e6602283611029565b91506114f18261148a565b604082019050919050565b60006020820190508181036000830152611515816114d9565b9050919050565b7f4e487b7100000000000000000000000000000000000000000000000000000000600052602260045260246000fd5b6000600282049050600182168061156357607f821691505b6020821081036115765761157561151c565b5b50919050565b7f506f6c6c206973206e6f74206163746976650000000000000000000000000000600082015250565b60006115b2601283611029565b91506115bd8261157c565b602082019050919050565b600060208201905081810360008301526115e1816115a5565b9050919050565b7f506f6c6c2074696d6520696e76616c6964000000000000000000000000000000600082015250565b600061161e601183611029565b9150611629826115e8565b602082019050919050565b6000602082019050818103600083015261164d81611611565b9050919050565b7f4e6f742077686974656c69737465640000000000000000000000000000000000600082015250565b600061168a600f83611029565b915061169582611654565b602082019050919050565b600060208201905081810360008301526116b98161167d565b9050919050565b7f416c726561647920766f74656400000000000000000000000000000000000000600082015250565b60006116f6600d83611029565b9150611701826116c0565b602082019050919050565b60006020820190508181036000830152611725816116e9565b9050919050565b7f496e76616c6964206f7074696f6e000000000000000000000000000000000000600082015250565b6000611762600e83611029565b915061176d8261172c565b602082019050919050565b6000602082019050818103600083015261179181611755565b9050919050565b7f4e487b7100000000000000000000000000000000000000000000000000000000600052601160045260246000fd5b60006117d282610df0565b91506117dd83610df0565b92508282019050808211156117f5576117f4611798565b5b92915050565b7f496e76616c696420616464726573730000000000000000000000000000000000600082015250565b6000611831600f83611029565b915061183c826117fb565b602082019050919050565b6000602082019050818103600083015261186081611824565b9050919050565b7f4f776e61626c653a206e6577206f776e657220697320746865207a65726f206160008201527f6464726573730000000000000000000000000000000000000000000000000000602082015250565b60006118c3602683611029565b91506118ce82611867565b604082019050919050565b600060208201905081810360008301526118f2816118b6565b9050919050565b7f506f6c6c20616c726561647920656e6465640000000000000000000000000000600082015250565b600061192f601283611029565b915061193a826118f9565b602082019050919050565b6000602082019050818103600083015261195e81611922565b9050919050565b7f4174206c656173742074776f206f7074696f6e73207265717569726564000000600082015250565b600061199b601d83611029565b91506119a682611965565b602082019050919050565b600060208201905081810360008301526119ca8161198e565b9050919050565b60008190508160005260206000209050919050565b60006020601f8301049050919050565b600082821b905092915050565b600060088302611a337fffffffffffffffffffffffffffffffffffffffffffffffffffffffffffffffff826119f6565b611a3d86836119f6565b95508019841693508086168417925050509392505050565b6000819050919050565b6000611a7a611a75611a7084610df0565b611a55565b610df0565b9050919050565b6000819050919050565b611a9483611a5f565b611aa8611aa082611a81565b848454611a03565b825550505050565b600090565b611abd611ab0565b611ac8818484611a8b565b505050565b5b81811015611aec57611ae1600082611ab5565b600181019050611ace565b5050565b601f821115611b3157611b02816119d1565b611b0b846119e6565b81016020851015611b1a578190505b611b2e611b26856119e6565b830182611acd565b50505b505050565b600082821c905092915050565b6000611b5460001984600802611b36565b1980831691505092915050565b6000611b6d8383611b43565b9150826002028217905092915050565b611b868261101e565b67ffffffffffffffff811115611b9f57611b9e611153565b5b611ba9825461154b565b611bb4828285611af0565b600060209050601f831160018114611be75760008415611bd5578287015190505b611bdf8582611b61565b865550611c47565b601f198416611bf5866119d1565b60005b82811015611c1d57848901518255600182019150602085019450602081019050611bf8565b86831015611c3a5784890151611c36601f891682611b43565b8355505b6001600288020188555050505b505050505050565b6000611c5a82610df0565b9150611c6583610df0565b9250828203905081811115611c7d57611c7c611798565b5b92915050565b60006060820190508181036000830152611c9d8186611075565b9050611cac60208301856110ae565b611cb960408301846110ae565b949350505050565b7f4f776e61626c653a2063616c6c6572206973206e6f7420746865206f776e6572600082015250565b6000611cf7602083611029565b9150611d0282611cc1565b602082019050919050565b60006020820190508181036000830152611d2681611cea565b905091905056fea2646970667358221220d21bb7b2e13f81bc356be5e0f0b9fd58bba52d932025e33cd94bf0de427f4d7164736f6c63430008180033",
  "linkReferences": {},
  "deployedLinkReferences": {}
}